:020000040800F2
:100000000008002025180008190600081B06000833
:1000100000000000000000000000000000000000E0
:100020000000000000000000000000001D060008A5
:1000300000000000000000001F0600082106000864
:10004000A5180008A5180008A5180008A51800089C
:10005000A5180008A5180008A5180008A51800088C
:1000600000000000A5180008A5180008A518000841
:10007000A5180008A518000800000000A518000831
:100080000000000000000000000000000000000070
:10009000A51800080000000000000000A5180008D6
:1000A00000000000A518000800000000000000008B
:1000B000A5180008A51800080000000000000000B6
:1000C00010B5064C2378002B07D1054B002B02D02E
:1000D000044800E000BF0123237010BD0C00002085
:1000E0000000000000190008044B10B5002B03D0DD
:1000F0000349044800E000BF10BDC04600000000F6
:100100001000002000190008002243088B4274D31D
:1001100003098B425FD3030A8B4244D3030B8B4208
:1001200028D3030C8B420DD3FF22090212BA030C11
:100130008B4202D31212090265D0030B8B4219D3F2
:1001400000E0090AC30B8B4201D3CB03C01A524112
:10015000830B8B4201D38B03C01A5241430B8B425A
:1001600001D34B03C01A5241030B8B4201D30B0343
:10017000C01A5241C30A8B4201D3CB02C01A52416A
:10018000830A8B4201D38B02C01A5241430A8B422D
:1001900001D34B02C01A5241030A8B4201D30B0216
:1001A000C01A5241CDD2C3098B4201D3CB01C01A30
:1001B000524183098B4201D38B01C01A524143093A
:1001C0008B4201D34B01C01A524103098B4201D328
:1001D0000B01C01A5241C3088B4201D3CB00C01A95
:1001E000524183088B4201D38B00C01A524143080D
:1001F0008B4201D34B00C01A5241411A00D2014632
:10020000524110467047FFE701B5002000F006F8A4
:1002100002BDC0460029F7D076E770477047C04658
:10022000002B11D1002A0FD1002900D1002802D0C3
:100230000021C943080007B4024802A140180290F7
:1002400003BDC046D9FFFFFF03B4684601B502985D
:1002500000F034F8019B9E4602B00CBC7047C046CB
:10026000F0B5CE46474680B5070099463B0C9C4604
:1002700013041B0C1D000E0061460004140C000C3E
:1002800045434B4360436143C0182C0C20188C46F7
:10029000834203D980235B029846C444494679438C
:1002A0007243030C63442D042D0CC918000440193B
:1002B0008918C0BCB946B046F0BDC046F0B5574637
:1002C0004E464546DE46E0B504000D00924699468E
:1002D00083B08B4230D82DD04946504600F0BAF852
:1002E00029000600200000F0B5F8331A9846203B9C
:1002F0009B4633D45A465346934042461F005346CA
:1003000093401E00AF423AD8AF4200D178E05B463E
:10031000A41BBD41002B00DA75E0002200230092EF
:10032000019301235A46934001930123424693408F
:10033000009328E08242CFD900220023009201934B
:100340000C9B002B01D01C605D600098019903B0EC
:10035000F0BCBB46B246A946A046F0BD42462023AB
:100360009B1A5246DA40414613004A468A4017001B
:1003700042461F43534693401E00AF42C4D9002259
:100380000023009201934346002BD9D0FB0772084B
:100390001A4346467B080EE0AB4201D1A2420CD87C
:1003A000A41A9D41012024196D410021013E241809
:1003B0004D41002E06D0AB42EED9013E24196D41CD
:1003C000002EF8D1009801995B4600196941002B75
:1003D00024DB2B005A464446D3402A00E2401C004E
:1003E0005B461500002B2ADB26009E4033002600CA
:1003F0004746BE403200801A9941009001919FE724
:10040000A342BCD883E74246202300219B1A002246
:10041000009101920122DA40019286E742462023B0
:100420009B1A2A0046469A402300F3404446134351
:100430002A00E2401C005B461500002BD4DA42463D
:100440002F002023260097409B1ADE403B003343B9
:10045000CDE7C04610B5002903D100F007F82030E1
:1004600002E0080000F002F810BDC0461C21012384
:100470001B04984201D3000C10391B0A984201D387
:10048000000A08391B09984201D30009043902A265
:10049000105C40187047C0460403020201010101CC
:1004A000000000000000000030B589B014220021D7
:1004B00003A801F01DFA154BD96A04221143D96231
:1004C000D96A0A400092009ADA6A01242243DA6269
:1004D000DA6A22400192019AD96A02221143D96252
:1004E000DB6A1A400292029B094D00220821280073
:1004F00001F03CF908230393049400230593069329
:1005000003A9280001F078F809B030BD00100240BE
:100510000004005072B6FEE710B50B480B4B0360A9
:10052000E1235B02436000238360C36003610C220C
:1005300042618361C3610362436200F0FDFA0028F7
:1005400000D110BDFFF7E6FF280000200044004066
:1005500000B599B0342200210BA801F0C9F914228A
:10056000002106A801F0C4F918220021684601F014
:10057000BFF91D490B681D4A1A4080231B01134314
:100580000B6002230B9301220E920F320F921493F1
:10059000002315938023DB0216938023DB0317933C
:1005A0000BA800F0B7FB002818D10F2306930C3BD3
:1005B00007930023089309930A93012106A800F0EA
:1005C00037FE00280CD102230093002302936846D3
:1005D00000F040FF002805D119B000BDFFF79AFFD9
:1005E000FFF798FFFFF796FF00700040FFE7FFFF5F
:1005F00010B500F0FFFAFFF7ABFFFFF755FFFFF76D
:100600008BFFFA20400000F01BFB0821014801F09D
:10061000B3F8F6E700040050FEE7FEE770477047C6
:1006200010B500F0FBFA10BD054B5A6B01210A43CF
:100630005A63996B802252050A439A637047C046F9
:100640000010024010B586B004001422002101A859
:1006500001F04EF92268104B9A4201D006B010BD4D
:100660000E4B996B802292020A439A63D96A012247
:100670001143D962DB6A1A400092009B084B019338
:10068000022302930133049301330593A02001A9AF
:10069000C00500F0B1FFE1E7004400400010024057
:1006A00004800000D0B50400016883680269134328
:1006B00042691343C26913430A68874802401343DF
:1006C0000B602268536885490B40E1680B43536017
:1006D000A1692268824B9A4201D0236A1943936828
:1006E000804803400B43936022687F4B9A4212D0AC
:1006F0007B4B9A4220D0102379498A4242D0E0694C
:100700008022120290427AD0082B00D9DEE09B00B2
:10071000764AD3589F46764BD96C0C230B40082B56
:1007200022D005D8002B21D0042BE5D01023E3E7FD
:100730000C2B1DD1043BDFE76D4BDB6CC0210901A5
:100740000B40802109018B4214D007D8002B13D015
:100750008021C9008B4211D10423CDE7C0210901BA
:100760008B420DD10823C7E70223C5E70023C3E767
:100770001023C1E70223BFE70023BDE71023BBE737
:100780001023B9E7042B35D00BD8002B2CD0022B2B
:1007900005D1574B1B68DB062FD4564805E00120D6
:1007A00073E0082B1ED180200002626853009B1862
:1007B000834200D97EE01303834200D27CE0070E1F
:1007C000060250080021801979410023FFF728FD17
:1007D000494BC218494B9A4200D96FE02368D86050
:1007E000002052E0012050E000F014FE0028DCD18F
:1007F00000204AE000F036FAF8E74148D5E7082B38
:100800005ED89B003F4AD3589F4600F003FE002865
:1008100058D0400063685B08C0186168FFF774FC3B
:1008200083B20004000C01001039374A91424BD8C2
:100830000F2293431A0040080723184010432368EF
:10084000D860002021E000F0F5FDE0E7284B1B68B0
:10085000DB0604D42748DCE700F004FAD7E7284891
:10086000D7E700F0D7FD002832D063685B0818187E
:100870006168FFF749FC0004000C0200103A224BAB
:100880009A4227D82368D860002000236366A366B5
:10089000D0BD00F0CFFDE6E7154B1B68DB0607D4A3
:1008A0001448E2E700F0DEF9DDE780200002DCE733
:1008B0001348DAE70120E8E70120E6E70120E4E752
:1008C0000120E2E70020E0E70120DEE70120DCE78D
:1008D0000020DAE70120D8E7F369FFEFFFCFFFFF41
:1008E00000480040FFF4FFFF0044004018190008D2
:1008F000001002400024F40000FDFFFFFFFC0F0089
:1009000000093D003C190008EFFF0000436ADB07C7
:1009100006D5026853682C490B40816A0B4353602B
:10092000436A9B0706D50268536828490B40C16A91
:100930000B435360436A5B0706D50268536824493A
:100940000B40016B0B435360436A1B0706D50268DB
:10095000536820490B40416B0B435360436ADB06ED
:1009600006D5026893681C490B40816B0B4393606A
:10097000436A9B0606D50268936818490B40C16B11
:100980000B439360436A5B060BD5026853681449B6
:100990000B40016C0B43536080235B03026C9A4253
:1009A0000AD0436A1B0606D5026853680D490B40FE
:1009B000816C0B4353607047026853680A490B40CF
:1009C000416C0B435360ECE7FFFFFDFFFFFFFEFFB1
:1009D000FFFFFBFFFF7FFFFFFFEFFFFFFFDFFFFFDB
:1009E000FFFFEFFFFFFFF7FFFFFF9FFFF8B5CE46CA
:1009F000474680B506000D0017009946089B9846AB
:100A00003368DC692C40641B63425C41BC4253D1B7
:100A100043460133F4D000F00DF94B46C01A40456F
:100A20002CD84346002B29D033681A685207E7D5E3
:100A3000DA691205E4D5802212011A62EFF3108000
:100A4000012282F3108831680B681E4C23400B6032
:100A500080F31088EFF3108082F3108831688B6880
:100A600093438B6080F310882023B367F3677F3252
:100A7000B35054330022F25403201EE0EFF31080F1
:100A8000012282F3108831680B680E4C23400B6002
:100A900080F31088EFF3108082F3108831688B6840
:100AA00093438B6080F310882023B367F36754333C
:100AB0000022F254032000E00020C0BCB946B0463A
:100AC000F8BDC0465FFEFFFF30B583B00400802351
:100AD0000022C25000F0AEF8050022681268130729
:100AE0000DD423681B685B0716D42023A367E36734
:100AF000002323667422A354002003B030BD80215C
:100B00000C4B00930300002289032000FFF76EFFC7
:100B10000028E6D00320F0E78021064B00932B004D
:100B20000022C9032000FFF761FF0028DDD0032069
:100B3000E3E7C046FFFFFF0110B5041E2ED0836F10
:100B4000002B21D02423A3672268136801218B4343
:100B500013602000FFF7A6FD012814D0636A002B64
:100B600018D1226853680E490B405360226893687D
:100B70002A218B4393602268136829390B43136041
:100B80002000FFF7A1FF10BD74330022C254FFF70D
:100B900059FDD7E72000FFF7B9FEE2E70120F2E7B1
:100BA000FFB7FFFF10B504000F4B1978FA20800043
:100BB000FFF7AAFA01000D4B1868FFF7A5FA00F03D
:100BC00013FE00280DD1032C01D901200AE00130C9
:100BD00000222100404200F0D7FD054B1C600020A0
:100BE00000E0012010BDC0460000002008000020E9
:100BF0000400002010B5084A136840210B4313601D
:100C00000020FFF7CFFF041E02D00124200010BDFA
:100C1000FFF70AFDFAE7C04600200240034A1168C8
:100C2000034B1B785B1813607047C046AC00002074
:100C300000000020014B18687047C046AC0000203F
:100C400070B50400FFF7F6FF0500631C02D0044BEB
:100C50001B78E418FFF7EEFF401BA042FAD370BDEB
:100C60000000002010B5264BDA680C231340082B37
:100C700042D00C2B11D0042B09D0214B5A68520BB7
:100C800007231340013380200002984010BD1C4B05
:100C90001B68DB0632D51B48F8E7910C0F230B408D
:100CA0001949C85C920D03231A40541C144BDB688D
:100CB000DB0309D5154A00230021FFF7D1FA2200F2
:100CC0000023FFF7ADFAE1E70D4B1B68DB0609D502
:100CD0000C4A00230021FFF7C3FA22000023FFF78C
:100CE0009FFAD3E70A4A00230021FFF7B9FA22004E
:100CF0000023FFF795FAC9E70448C7E70448C5E7AA
:100D00000010024000093D007819000800127A0026
:100D10000024F400F0B583B0041E00D165E2C54B99
:100D2000DA680C251540DE6880235B021E400368EC
:100D3000DB0736D5082D2CD00C2D28D063688022F7
:100D40005202934255D0A022D202934258D0B94BBE
:100D50001A68B9490A401A601A68802149020A4093
:100D60000192019A1A68B5490A401A606368002B1B
:100D700052D0FFF75FFF0700AE4B1B689B0310D4F8
:100D8000FFF758FFC01B6428F6D903202EE2002E7F
:100D9000D4D0A84B1B689B0303D56368002B00D1FC
:100DA00026E223689B076DD5E3689A0605D5A1481E
:100DB000026820210A4302608B43042D3CD00C2D95
:100DC00038D0002B00D1B0E09A490A68092082434C
:100DD00013430B60FFF72EFF0600964B1B685B0763
:100DE00000D599E0FFF726FF801B0228F5D90320E4
:100DF000FCE1904A116880235B020B431360B5E766
:100E00008C4B19688022D2020A431A60196880222A
:100E100052020A431A60A9E7FFF70CFF0700854B4F
:100E20001B689B03BDD5FFF705FFC01B6428F6D9DF
:100E30000320DBE1002EC4D17E4A1268520702D59E
:100E4000002B00D1D6E17B4E72687D490A402169B2
:100E500009020A437260326809218A4313433360EE
:100E6000FFF700FFF26812090F231340754AD35CA5
:100E7000D840754B1860754B1868FFF793FE002833
:100E800000D0B3E12368DB062DD5002D60D1694B7E
:100E90001B689B0503D5A369002B00D1ACE1654A13
:100EA00053686B490B40216A0B43536053681B0224
:100EB0001B0AE16909060B435360236A590B013190
:100EC00080231B028B40D16809090F220A405D492B
:100ED0008A5CD3405C4A13605C4B1868FFF762FE83
:100EE000002800D082E123681B077DD56369002BB1
:100EF00067D0504A136D01210B431365FFF79AFE2B
:100F000006004C4B1B6D9B076ED4FFF793FE801BB6
:100F10000228F6D9032069E146494B68484A134044
:100F20002269120213434B60ACE7424A1368012165
:100F30008B431360FFF77EFE06003E4B1B685B078A
:100F4000A0D5FFF777FE801B0228F6D903204DE1DC
:100F5000A369002B22D0374A116880235B000B4322
:100F60001360FFF767FE0600324B1B689B0506D433
:100F7000FFF760FE801B0228F6D9032036E12D4AD8
:100F8000536833490B40216A0B43536053681B027B
:100F90001B0AE16909060B435360A4E7254A13685D
:100FA0002C490B401360FFF745FE0600214B1B68E0
:100FB0009B0598D5FFF73EFE801B0228F6D903203B
:100FC00014E11C4A136D01218B431365FFF732FEB8
:100FD0000600184B1B6D9B0706D5FFF72BFE801BE9
:100FE0000228F6D9032001E123685B0700D48EE0D4
:100FF000104B9B6BDB001BD40E4A916B80235B056F
:101000000B4393630126144B1B68DB0528D5A368AB
:1010100080225200934237D0002B4DD1054B1A6DE0
:101020000C490A401A651A6D0C490A401A6531E0EC
:101030000026E8E700100240FFFFFEFFFFFFFBFF76
:10104000FFE0FFFF601900080800002004000020F6
:10105000FF1FFFFFFFFEFFFF00700040FFFBFFFFD1
:101060006B4A116880235B000B431360FFF7E2FDBE
:101070000700674B1B68DB05C9D4FFF7DBFDC01B0E
:101080006428F6D90320B1E0624A116D80235B0029
:101090000B431365A368002B28D0FFF7CBFD070097
:1010A0005C4B1B6D9B0530D4FFF7C4FDC01B5A4B36
:1010B0009842F5D9032099E0A022D200934209D0AA
:1010C000544B1A6D55490A401A651A6D54490A4025
:1010D0001A65DFE74F4B196D013AFF3A0A431A656B
:1010E000196D802252000A431A65D3E7FFF7A2FD6B
:1010F0000700484B1B6D9B0507D5FFF79BFDC01BE9
:10110000454B9842F5D9032070E0012E1AD0636A4E
:10111000002B00D172E00C2D4FD0022B18D03D4A8D
:10112000136840490B401360FFF784FD0400394BFE
:101130001B689B013FD5FFF77DFD001B0228F6D9F8
:10114000032053E0334A936B37490B409363DEE748
:10115000304A136833490B401360FFF76BFD0500FD
:101160002C4B1B689B0106D5FFF764FD401B022832
:10117000F6D903203AE02749CB682C4A1340A26AEB
:10118000E06A0243206B02431343CB600A6880236A
:101190005B0413430B60FFF74DFD04001D4B1B6800
:1011A0009B0106D4FFF746FD001B0228F6D9032059
:1011B0001CE000201AE0002018E0012B20D0154B85
:1011C000DA6880235B021340A16A8B421AD1F023B4
:1011D0009B031340E16A8B4216D1C0231B041A40C3
:1011E000236B9A4212D1002000E0012003B0F0BD31
:1011F0000120FBE70120F9E70120F7E70020F5E7F0
:101200000120F3E70120F1E70120EFE70120EDE7FE
:10121000007000400010024088130000FFFEFFFF36
:10122000FFFBFFFFFFFFFFFEFFFFFFEFFFFF02FFE0
:1012300070B505000C00002800D1D1E06A4B1A6897
:10124000012313408B4219D32B689B0706D5674AAD
:10125000D368F0218B43A9680B43D3602B68DB076D
:101260007BD56B68022B20D0032B40D0012B44D0C0
:101270005E4A126892051DD4012099E05A4A13680B
:1012800001218B4323431360FFF7D4FC0600564B28
:101290001A6801231340A342D6D0FFF7CBFC801B72
:1012A000534A9042F3D9032082E0504A12689203D5
:1012B00000D497E04D49CA68032082431343CB60B2
:1012C000FFF7B8FC06006B68022B1CD0032B28D05C
:1012D000012B34D0454BDB680C221A423DD0FFF77E
:1012E000A9FC801B424B9842F4D9032060E03F4A9E
:1012F00012689201DED401205AE03C4A126852077B
:10130000D8D4012054E0394BDA680C231340082B61
:1013100023D0FFF78FFC801B354A9042F3D903207E
:1013200046E0324BDA680C2313400C2B15D0FFF744
:1013300081FC801B2E4B9842F3D9032038E02B4BC5
:10134000DA680C231340042B07D0FFF773FC801BD3
:10135000274B9842F3D903202AE0234B1A68012334
:101360001340A34225D82B685B0706D51F4AD368D4
:1013700020490B40E9680B43D3602B681B0707D556
:101380001A49CB681C4A13402A69D2001343CB6028
:10139000FFF768FC154BDA6812090F231340174A50
:1013A000D35CD840164B1860164B1868FFF7FAFB51
:1013B00070BD0D4A136801218B4323431360FFF76F
:1013C00039FC0600084B1A6801231340A342CAD017
:1013D000FFF730FC801B064B9842F3D90320E7E768
:1013E0000120E5E70120E3E7002002400010024071
:1013F00088130000FFF8FFFFFFC7FFFF6019000818
:101400000800002004000020014B18687047C04607
:101410000800002010B5FFF7F7FF044BDA68120A46
:1014200007231340024AD35CD84010BD001002408D
:101430007019000810B5FFF7E7FF044BDA68D20A0D
:1014400007231340024AD35CD84010BD001002406D
:101450007019000870B5040003689B064ED55C4BFC
:101460009B6BDB0000D573E0594A916B80235B05D1
:101470000B4393630125574B1B68DB056AD5544B1F
:101480001968C0239B031940626813408B4206D041
:10149000C0239B0211001940994200D16FE04C4BD0
:1014A000196DC0239B0208001840194215D01A403C
:1014B000824212D023689B060FD5454B186D464AD1
:1014C00002401E6D8021090331431965196D434E99
:1014D000314019651A65C30558D46368C022920269
:1014E00019001140914260D039490B6DC02292021F
:1014F0006068024013430B65012D60D023689B0791
:1015000006D5334AD36C0C218B43A1680B43D364BB
:1015100023685B0706D52E4AD36C31490B40E1683E
:101520000B43D36423681B0706D5294AD36C2D4986
:101530000B4021690B43D36423681B0645D5244A1D
:10154000D36C29490B4061690B43D364002070BD03
:10155000002590E71F4A116880235B000B4313604E
:10156000FFF768FB06001B4B1B68DB0500D586E711
:10157000FFF760FB801B6428F5D90320E7E7144BD5
:101580001B689B0300D48AE70120E0E7FFF752FBCA
:1015900006000F4B1B6D9B059FD4FFF74BFB801B79
:1015A000124B9842F5D90320D1E709490A6810483F
:1015B0000240C0208003034013430B6094E70A00FD
:1015C0008B6B0C490B40936398E70020BFE7C04644
:1015D0000010024000700040FFFFFCFFFFFFF7FF1C
:1015E000FFF3FFFFFFCFFFFFFFFFF3FF88130000B4
:1015F000FFFFCFFFFFFFFFEFF0B5002357E0846848
:101600005F000326BE40B4432600CC68BC40344390
:101610008460446894434A681609012232409A4023
:101620002243426053E0DC080834A4002658053207
:101630001A4092000F279740BE430F6997403A0027
:101640003243225057E0022600E00026A640340034
:101650003C4302329200404E9451404A1468EA439F
:101660002600AE434F68FF0301D52C4326003B4CB8
:1016700026606468260016404F68BF0301D52C43DE
:101680002600364C6660A468260016404F68FF02AC
:1016900001D52C432600314CA660E46822404E68F8
:1016A000B60201D52A0022432C4CE26001330C68BB
:1016B0002200DA404ED001229A4025001540144203
:1016C000F4D003244E683440013C012C97D9032206
:1016D0004C682240032A09D0C2685E000324B4404B
:1016E000A24314008A68B2402243C26003224C68BD
:1016F0002240022A97D004685E0003221700B740F8
:10170000BC434F683A40B24022430260C02292027A
:101710004C681442CAD0124C626B01263243626399
:101720009A08941CA4000C4EA75903241C40A40042
:101730000F26A640B743A026F605B04285D0094E35
:10174000B04205D0084EB04200D17CE706267DE7C6
:1017500001267BE7F0BDC0460000014000040140C7
:10176000001002400004005000080050002A01D080
:10177000816170478162FCE7426913000B401B04E2
:10178000914319438161704770B5002811DB8308CC
:10179000134EC0339B009D5903242040C000FF22FC
:1017A00014008440A54389010A4082402A439A518B
:1017B00070BD0F230340083B9B0806339B00094A7A
:1017C000944663445C6803221040C000FC3215005C
:1017D0008540AC4389010A40824022435A60E7E7D2
:1017E00000E100E000ED00E0013880235B04984256
:1017F0000FD2094A50600948036A1B021B0AC02124
:1018000009060B4303620023936007331360002033
:1018100070470120FCE7C04610E000E000ED00E06A
:10182000704700001348854613480168090E134AA3
:10183000914205D1124813490160134813490160D0
:1018400013481449144A002302E0D458C450043306
:10185000C4188C42F9D3114A114C002301E01360E3
:101860000432A242FBD3FFF7DBFF00F01DF8FEF7C6
:10187000BFFEFEE700080020040000001F0000007B
:101880003410024001000000000001400000000090
:10189000000000200C000020941900080C0000201B
:1018A000B0000020FEE7000070B500260C4D0D4C86
:1018B000641BA410A64209D1002600F021F80A4DAD
:1018C0000A4C641BA410A64205D170BDB300EB58AE
:1018D00098470136EEE7B300EB5898470136F2E738
:1018E0008C1900088C1900088C1900089019000840
:1018F00003008218934200D1704719700133F9E751
:10190000F8B5C046F8BC08BC9E467047F8B5C0465E
:08191000F8BC08BC9E467047BC
:10191800620800089208000898080008CC08000827
:10192800A4080008CC080008CC080008CC08000867
:10193800AA0800080A080008460800084C08000819
:10194800C008000858080008C0080008C0080008B7
:10195800C00800081208000800000000000000008D
:10196800010203040607080900000000010203043D
:0C197800030406080C10182030000000CA
:0819840038E9FF7F01000000BB
:04198C00E900000866
:04199000C10000088A
:0C19940001000000040000000000200022
:0400000508001825B2
:00000001FF
